{
  "_format": "hh-sol-artifact-1",
  "contractName": "Voting",
  "sourceName": "contracts/voting.sol",
  "abi": [
    {
      "inputs": [],
      "stateMutability": "nonpayable",
      "type": "constructor"
    },
    {
      "anonymous": false,
      "inputs": [
        {
          "indexed": false,
          "internalType": "address",
          "name": "oldAdmin",
          "type": "address"
        },
        {
          "indexed": false,
          "internalType": "address",
          "name": "newAdmin",
          "type": "address"
        }
      ],
      "name": "AdminTransferred",
      "type": "event"
    },
    {
      "anonymous": false,
      "inputs": [
        {
          "indexed": false,
          "internalType": "uint256",
          "name": "electionId",
          "type": "uint256"
        },
        {
          "indexed": false,
          "internalType": "uint256",
          "name": "candidateId",
          "type": "uint256"
        },
        {
          "indexed": false,
          "internalType": "string",
          "name": "name",
          "type": "string"
        }
      ],
      "name": "CandidateAdded",
      "type": "event"
    },
    {
      "anonymous": false,
      "inputs": [
        {
          "indexed": false,
          "internalType": "uint256",
          "name": "electionId",
          "type": "uint256"
        },
        {
          "indexed": false,
          "internalType": "string",
          "name": "name",
          "type": "string"
        },
        {
          "indexed": false,
          "internalType": "uint256",
          "name": "startTime",
          "type": "uint256"
        },
        {
          "indexed": false,
          "internalType": "uint256",
          "name": "endTime",
          "type": "uint256"
        },
        {
          "indexed": false,
          "internalType": "bool",
          "name": "isPublic",
          "type": "bool"
        },
        {
          "indexed": false,
          "internalType": "uint256",
          "name": "minAge",
          "type": "uint256"
        },
        {
          "indexed": false,
          "internalType": "string",
          "name": "requiredEducation",
          "type": "string"
        }
      ],
      "name": "ElectionCreated",
      "type": "event"
    },
    {
      "anonymous": false,
      "inputs": [
        {
          "indexed": false,
          "internalType": "uint256",
          "name": "electionId",
          "type": "uint256"
        },
        {
          "indexed": false,
          "internalType": "uint256",
          "name": "candidateId",
          "type": "uint256"
        },
        {
          "indexed": false,
          "internalType": "address",
          "name": "voter",
          "type": "address"
        }
      ],
      "name": "Voted",
      "type": "event"
    },
    {
      "anonymous": false,
      "inputs": [
        {
          "indexed": false,
          "internalType": "address",
          "name": "voter",
          "type": "address"
        },
        {
          "indexed": false,
          "internalType": "uint256",
          "name": "age",
          "type": "uint256"
        },
        {
          "indexed": false,
          "internalType": "string",
          "name": "education",
          "type": "string"
        }
      ],
      "name": "VoterRegistered",
      "type": "event"
    },
    {
      "inputs": [
        {
          "internalType": "uint256",
          "name": "_electionId",
          "type": "uint256"
        },
        {
          "internalType": "string",
          "name": "_candidateName",
          "type": "string"
        }
      ],
      "name": "addCandidate",
      "outputs": [],
      "stateMutability": "nonpayable",
      "type": "function"
    },
    {
      "inputs": [],
      "name": "admin",
      "outputs": [
        {
          "internalType": "address",
          "name": "",
          "type": "address"
        }
      ],
      "stateMutability": "view",
      "type": "function"
    },
    {
      "inputs": [
        {
          "internalType": "string",
          "name": "_name",
          "type": "string"
        },
        {
          "internalType": "uint256",
          "name": "_startTime",
          "type": "uint256"
        },
        {
          "internalType": "uint256",
          "name": "_endTime",
          "type": "uint256"
        },
        {
          "internalType": "bool",
          "name": "_isPublic",
          "type": "bool"
        },
        {
          "internalType": "uint256",
          "name": "_minAge",
          "type": "uint256"
        },
        {
          "internalType": "string",
          "name": "_requiredEducation",
          "type": "string"
        }
      ],
      "name": "createElection",
      "outputs": [],
      "stateMutability": "nonpayable",
      "type": "function"
    },
    {
      "inputs": [],
      "name": "electionCount",
      "outputs": [
        {
          "internalType": "uint256",
          "name": "",
          "type": "uint256"
        }
      ],
      "stateMutability": "view",
      "type": "function"
    },
    {
      "inputs": [
        {
          "internalType": "uint256",
          "name": "",
          "type": "uint256"
        }
      ],
      "name": "electionIds",
      "outputs": [
        {
          "internalType": "uint256",
          "name": "",
          "type": "uint256"
        }
      ],
      "stateMutability": "view",
      "type": "function"
    },
    {
      "inputs": [
        {
          "internalType": "uint256",
          "name": "",
          "type": "uint256"
        }
      ],
      "name": "elections",
      "outputs": [
        {
          "internalType": "uint256",
          "name": "id",
          "type": "uint256"
        },
        {
          "internalType": "string",
          "name": "name",
          "type": "string"
        },
        {
          "internalType": "uint256",
          "name": "startTime",
          "type": "uint256"
        },
        {
          "internalType": "uint256",
          "name": "endTime",
          "type": "uint256"
        },
        {
          "internalType": "bool",
          "name": "exists",
          "type": "bool"
        },
        {
          "internalType": "bool",
          "name": "isPublic",
          "type": "bool"
        },
        {
          "internalType": "uint256",
          "name": "minAge",
          "type": "uint256"
        },
        {
          "internalType": "string",
          "name": "requiredEducation",
          "type": "string"
        },
        {
          "internalType": "uint256",
          "name": "candidateCount",
          "type": "uint256"
        }
      ],
      "stateMutability": "view",
      "type": "function"
    },
    {
      "inputs": [
        {
          "internalType": "uint256",
          "name": "_electionId",
          "type": "uint256"
        }
      ],
      "name": "getAllCandidates",
      "outputs": [
        {
          "internalType": "string[]",
          "name": "",
          "type": "string[]"
        },
        {
          "internalType": "uint256[]",
          "name": "",
          "type": "uint256[]"
        }
      ],
      "stateMutability": "view",
      "type": "function"
    },
    {
      "inputs": [],
      "name": "getAllElections",
      "outputs": [
        {
          "internalType": "uint256[]",
          "name": "",
          "type": "uint256[]"
        },
        {
          "internalType": "string[]",
          "name": "",
          "type": "string[]"
        },
        {
          "internalType": "uint256[]",
          "name": "",
          "type": "uint256[]"
        },
        {
          "internalType": "uint256[]",
          "name": "",
          "type": "uint256[]"
        },
        {
          "internalType": "bool[]",
          "name": "",
          "type": "bool[]"
        },
        {
          "internalType": "uint256[]",
          "name": "",
          "type": "uint256[]"
        },
        {
          "internalType": "string[]",
          "name": "",
          "type": "string[]"
        }
      ],
      "stateMutability": "view",
      "type": "function"
    },
    {
      "inputs": [
        {
          "internalType": "uint256",
          "name": "_electionId",
          "type": "uint256"
        },
        {
          "internalType": "uint256",
          "name": "_candidateId",
          "type": "uint256"
        }
      ],
      "name": "getCandidate",
      "outputs": [
        {
          "internalType": "string",
          "name": "",
          "type": "string"
        },
        {
          "internalType": "uint256",
          "name": "",
          "type": "uint256"
        }
      ],
      "stateMutability": "view",
      "type": "function"
    },
    {
      "inputs": [
        {
          "internalType": "uint256",
          "name": "_electionId",
          "type": "uint256"
        }
      ],
      "name": "getCandidateCount",
      "outputs": [
        {
          "internalType": "uint256",
          "name": "",
          "type": "uint256"
        }
      ],
      "stateMutability": "view",
      "type": "function"
    },
    {
      "inputs": [
        {
          "internalType": "uint256",
          "name": "_electionId",
          "type": "uint256"
        }
      ],
      "name": "getElectionStatus",
      "outputs": [
        {
          "internalType": "string",
          "name": "",
          "type": "string"
        }
      ],
      "stateMutability": "view",
      "type": "function"
    },
    {
      "inputs": [
        {
          "internalType": "uint256",
          "name": "_electionId",
          "type": "uint256"
        },
        {
          "internalType": "address",
          "name": "_voter",
          "type": "address"
        }
      ],
      "name": "hasVoted",
      "outputs": [
        {
          "internalType": "bool",
          "name": "",
          "type": "bool"
        }
      ],
      "stateMutability": "view",
      "type": "function"
    },
    {
      "inputs": [
        {
          "internalType": "uint256",
          "name": "_age",
          "type": "uint256"
        },
        {
          "internalType": "string",
          "name": "_education",
          "type": "string"
        }
      ],
      "name": "registerVoter",
      "outputs": [],
      "stateMutability": "nonpayable",
      "type": "function"
    },
    {
      "inputs": [
        {
          "internalType": "address",
          "name": "newAdmin",
          "type": "address"
        }
      ],
      "name": "transferAdmin",
      "outputs": [],
      "stateMutability": "nonpayable",
      "type": "function"
    },
    {
      "inputs": [
        {
          "internalType": "uint256",
          "name": "_electionId",
          "type": "uint256"
        },
        {
          "internalType": "uint256",
          "name": "_candidateId",
          "type": "uint256"
        }
      ],
      "name": "vote",
      "outputs": [],
      "stateMutability": "nonpayable",
      "type": "function"
    },
    {
      "inputs": [
        {
          "internalType": "address",
          "name": "",
          "type": "address"
        }
      ],
      "name": "voters",
      "outputs": [
        {
          "internalType": "bool",
          "name": "registered",
          "type": "bool"
        },
        {
          "internalType": "uint256",
          "name": "age",
          "type": "uint256"
        },
        {
          "internalType": "string",
          "name": "education",
          "type": "string"
        }
      ],
      "stateMutability": "view",
      "type": "function"
    }
  ],
  "bytecode": "0x60806040526000600155348015601457600080fd5b50336000806101000a81548173ffffffffffffffffffffffffffffffffffffffff021916908373ffffffffffffffffffffffffffffffffffffffff160217905550613aab806100646000396000f3fe608060405234801561001057600080fd5b50600436106101005760003560e01c80636bc61e1111610097578063a3ec138d11610066578063a3ec138d146102e0578063b384abef14610312578063f851a4401461032e578063f9ded6461461034c57610100565b80636bc61e111461026657806375829def146102825780637fd5f2681461029e578063997d2830146102c257610100565b806343859632116100d357806343859632146101b15780634bd46448146101e15780635e6fef011461021257806368c388d11461024a57610100565b806302330a61146101055780631750a3d01461013557806324785b9e1461015157806326f6a2aa14610181575b600080fd5b61011f600480360381019061011a919061218c565b61037d565b60405161012c91906121c8565b60405180910390f35b61014f600480360381019061014a9190612329565b6103a1565b005b61016b6004803603810190610166919061218c565b61063a565b6040516101789190612404565b60405180910390f35b61019b6004803603810190610196919061218c565b610776565b6040516101a891906121c8565b60405180910390f35b6101cb60048036038101906101c69190612484565b6107ec565b6040516101d891906124df565b60405180910390f35b6101fb60048036038101906101f691906124fa565b6108ad565b60405161020992919061253a565b60405180910390f35b61022c6004803603810190610227919061218c565b610a26565b6040516102419998979695949392919061256a565b60405180910390f35b610264600480360381019061025f9190612631565b610b9e565b005b610280600480360381019061027b9190612329565b610ebb565b005b61029c600480360381019061029791906126f6565b6110fc565b005b6102a661129c565b6040516102b997969594939291906129ab565b60405180910390f35b6102ca6117b8565b6040516102d791906121c8565b60405180910390f35b6102fa60048036038101906102f591906126f6565b6117be565b60405161030993929190612a4b565b60405180910390f35b61032c600480360381019061032791906124fa565b61187d565b005b610336611d8b565b6040516103439190612a98565b60405180910390f35b6103666004803603810190610361919061218c565b611daf565b604051610374929190612ab3565b60405180910390f35b6002818154811061038d57600080fd5b906000526020600020016000915090505481565b60008054906101000a900473ffffffffffffffffffffffffffffffffffffffff1673ffffffffffffffffffffffffffffffffffffffff163373ffffffffffffffffffffffffffffffffffffffff161461042f576040517f08c379a000000000000000000000000000000000000000000000000000000000815260040161042690612b5c565b60405180910390fd5b6000815111610473576040517f08c379a000000000000000000000000000000000000000000000000000000000815260040161046a90612bc8565b60405180910390fd5b60006003600084815260200190815260200160002090508060040160009054906101000a900460ff166104db576040517f08c379a00000000000000000000000000000000000000000000000000000000081526004016104d290612c34565b60405180910390fd5b6000600190505b8160080154811161057557828051906020012082600701600083815260200190815260200160002060010160405161051a9190612d57565b604051809103902003610562576040517f08c379a000000000000000000000000000000000000000000000000000000000815260040161055990612de0565b60405180910390fd5b808061056d90612e2f565b9150506104e2565b5080600801600081548092919061058b90612e2f565b91905055506040518060600160405280826008015481526020018381526020016000815250816007016000836008015481526020019081526020016000206000820151816000015560208201518160010190816105e89190613023565b50604082015181600201559050507fed8911b3df733b7d5f75724158e54478ea12e30f49c9d31b5261879f5b76586f8382600801548460405161062d939291906130f5565b60405180910390a1505050565b606060006003600084815260200190815260200160002090508060040160009054906101000a900460ff166106a4576040517f08c379a000000000000000000000000000000000000000000000000000000000815260040161069b90612c34565b60405180910390fd5b80600201544210156106ee576040518060400160405280600b81526020017f4e6f742053746172746564000000000000000000000000000000000000000000815250915050610771565b80600301544211610737576040518060400160405280600681526020017f4163746976650000000000000000000000000000000000000000000000000000815250915050610771565b6040518060400160405280600981526020017f436f6d706c6574656400000000000000000000000000000000000000000000008152509150505b919050565b6000806003600084815260200190815260200160002090508060040160009054906101000a900460ff166107df576040517f08c379a00000000000000000000000000000000000000000000000000000000081526004016107d690612c34565b60405180910390fd5b8060080154915050919050565b6000806003600085815260200190815260200160002090508060040160009054906101000a900460ff16610855576040517f08c379a000000000000000000000000000000000000000000000000000000000815260040161084c90612c34565b60405180910390fd5b8060090160008473ffffffffffffffffffffffffffffffffffffffff1673ffffffffffffffffffffffffffffffffffffffff16815260200190815260200160002060009054906101000a900460ff1691505092915050565b60606000806003600086815260200190815260200160002090508060040160009054906101000a900460ff16610918576040517f08c379a000000000000000000000000000000000000000000000000000000000815260040161090f90612c34565b60405180910390fd5b60008411801561092c575080600801548411155b61096b576040517f08c379a00000000000000000000000000000000000000000000000000000000081526004016109629061317f565b60405180910390fd5b6000816007016000868152602001908152602001600020905080600101816002015481805461099990612c83565b80601f01602080910402602001604051908101604052809291908181526020018280546109c590612c83565b8015610a125780601f106109e757610100808354040283529160200191610a12565b820191906000526020600020905b8154815290600101906020018083116109f557829003601f168201915b505050505091509350935050509250929050565b6003602052806000526040600020600091509050806000015490806001018054610a4f90612c83565b80601f0160208091040260200160405190810160405280929190818152602001828054610a7b90612c83565b8015610ac85780601f10610a9d57610100808354040283529160200191610ac8565b820191906000526020600020905b815481529060010190602001808311610aab57829003601f168201915b5050505050908060020154908060030154908060040160009054906101000a900460ff16908060040160019054906101000a900460ff1690806005015490806006018054610b1590612c83565b80601f0160208091040260200160405190810160405280929190818152602001828054610b4190612c83565b8015610b8e5780601f10610b6357610100808354040283529160200191610b8e565b820191906000526020600020905b815481529060010190602001808311610b7157829003601f168201915b5050505050908060080154905089565b60008054906101000a900473ffffffffffffffffffffffffffffffffffffffff1673ffffffffffffffffffffffffffffffffffffffff163373ffffffffffffffffffffffffffffffffffffffff1614610c2c576040517f08c379a0000000000000000000000000000000000000000000000000000000008152600401610c2390612b5c565b60405180910390fd5b6000865111610c70576040517f08c379a0000000000000000000000000000000000000000000000000000000008152600401610c67906131eb565b60405180910390fd5b838510610cb2576040517f08c379a0000000000000000000000000000000000000000000000000000000008152600401610ca99061327d565b60405180910390fd5b428411610cf4576040517f08c379a0000000000000000000000000000000000000000000000000000000008152600401610ceb906132e9565b60405180910390fd5b82610d885760008211610d3c576040517f08c379a0000000000000000000000000000000000000000000000000000000008152600401610d339061337b565b60405180910390fd5b6000610d4782611ff6565b11610d87576040517f08c379a0000000000000000000000000000000000000000000000000000000008152600401610d7e9061340d565b60405180910390fd5b5b60016000815480929190610d9b90612e2f565b919050555060006003600060015481526020019081526020016000209050600154816000018190555086816001019081610dd59190613023565b5085816002018190555084816003018190555060018160040160006101000a81548160ff021916908315150217905550838160040160016101000a81548160ff02191690831515021790555083610e425782816005018190555081816006019081610e409190613023565b505b600260015490806001815401808255809150506001900390600052602060002001600090919091909150557ff47225faa6a1d708e11e486200aff962710b05a4f72c48523aa946c171989c9e600154888888888888604051610eaa979695949392919061342d565b60405180910390a150505050505050565b600460003373ffffffffffffffffffffffffffffffffffffffff1673ffffffffffffffffffffffffffffffffffffffff16815260200190815260200160002060000160009054906101000a900460ff1615610f4b576040517f08c379a0000000000000000000000000000000000000000000000000000000008152600401610f42906134f6565b60405180910390fd5b60008211610f8e576040517f08c379a0000000000000000000000000000000000000000000000000000000008152600401610f8590613562565b60405180910390fd5b6000815111610fd2576040517f08c379a0000000000000000000000000000000000000000000000000000000008152600401610fc9906135ce565b60405180910390fd5b6000610fdd82611ff6565b1161101d576040517f08c379a00000000000000000000000000000000000000000000000000000000081526004016110149061363a565b60405180910390fd5b604051806060016040528060011515815260200183815260200182815250600460003373ffffffffffffffffffffffffffffffffffffffff1673ffffffffffffffffffffffffffffffffffffffff16815260200190815260200160002060008201518160000160006101000a81548160ff0219169083151502179055506020820151816001015560408201518160020190816110b99190613023565b509050507f395c0d6d43344c56288325610f3471d3c61e6697b2af26e7fdbe008138839d603383836040516110f09392919061365a565b60405180910390a15050565b60008054906101000a900473ffffffffffffffffffffffffffffffffffffffff1673ffffffffffffffffffffffffffffffffffffffff163373ffffffffffffffffffffffffffffffffffffffff161461118a576040517f08c379a000000000000000000000000000000000000000000000000000000000815260040161118190612b5c565b60405180910390fd5b600073ffffffffffffffffffffffffffffffffffffffff168173ffffffffffffffffffffffffffffffffffffffff16036111f9576040517f08c379a00000000000000000000000000000000000000000000000000000000081526004016111f0906136e4565b60405180910390fd5b60008060009054906101000a900473ffffffffffffffffffffffffffffffffffffffff169050816000806101000a81548173ffffffffffffffffffffffffffffffffffffffff021916908373ffffffffffffffffffffffffffffffffffffffff1602179055507ff8ccb027dfcd135e000e9d45e6cc2d662578a8825d4c45b5e32e0adf67e79ec68183604051611290929190613704565b60405180910390a15050565b60608060608060608060606000600280549050905060008167ffffffffffffffff8111156112cd576112cc6121fe565b5b6040519080825280602002602001820160405280156112fb5781602001602082028036833780820191505090505b50905060008267ffffffffffffffff81111561131a576113196121fe565b5b60405190808252806020026020018201604052801561134d57816020015b60608152602001906001900390816113385790505b50905060008367ffffffffffffffff81111561136c5761136b6121fe565b5b60405190808252806020026020018201604052801561139a5781602001602082028036833780820191505090505b50905060008467ffffffffffffffff8111156113b9576113b86121fe565b5b6040519080825280602002602001820160405280156113e75781602001602082028036833780820191505090505b50905060008567ffffffffffffffff811115611406576114056121fe565b5b6040519080825280602002602001820160405280156114345781602001602082028036833780820191505090505b50905060008667ffffffffffffffff811115611453576114526121fe565b5b6040519080825280602002602001820160405280156114815781602001602082028036833780820191505090505b50905060008767ffffffffffffffff8111156114a05761149f6121fe565b5b6040519080825280602002602001820160405280156114d357816020015b60608152602001906001900390816114be5790505b50905060005b88811015611791576000600282815481106114f7576114f661372d565b5b90600052602060002001549050600060036000838152602001908152602001600020905080600001548a84815181106115335761153261372d565b5b60200260200101818152505080600101805461154e90612c83565b80601f016020809104026020016040519081016040528092919081815260200182805461157a90612c83565b80156115c75780601f1061159c576101008083540402835291602001916115c7565b820191906000526020600020905b8154815290600101906020018083116115aa57829003601f168201915b50505050508984815181106115df576115de61372d565b5b602002602001018190525080600201548884815181106116025761160161372d565b5b60200260200101818152505080600301548784815181106116265761162561372d565b5b6020026020010181815250508060040160019054906101000a900460ff168684815181106116575761165661372d565b5b6020026020010190151590811515815250508060040160019054906101000a900460ff1661168957806005015461168c565b60005b85848151811061169f5761169e61372d565b5b6020026020010181815250508060040160019054906101000a900460ff16611753578060060180546116d090612c83565b80601f01602080910402602001604051908101604052809291908181526020018280546116fc90612c83565b80156117495780601f1061171e57610100808354040283529160200191611749565b820191906000526020600020905b81548152906001019060200180831161172c57829003601f168201915b5050505050611764565b604051806020016040528060008152505b8484815181106117775761177661372d565b5b6020026020010181905250505080806001019150506114d9565b50868686868686869e509e509e509e509e509e509e50505050505050505090919293949596565b60015481565b60046020528060005260406000206000915090508060000160009054906101000a900460ff16908060010154908060020180546117fa90612c83565b80601f016020809104026020016040519081016040528092919081815260200182805461182690612c83565b80156118735780601f1061184857610100808354040283529160200191611873565b820191906000526020600020905b81548152906001019060200180831161185657829003601f168201915b5050505050905083565b60006003600084815260200190815260200160002090508060040160009054906101000a900460ff166118e5576040517f08c379a00000000000000000000000000000000000000000000000000000000081526004016118dc90612c34565b60405180910390fd5b806002015442101561192c576040517f08c379a0000000000000000000000000000000000000000000000000000000008152600401611923906137a8565b60405180910390fd5b8060030154421115611973576040517f08c379a000000000000000000000000000000000000000000000000000000000815260040161196a90613814565b60405180910390fd5b8060090160003373ffffffffffffffffffffffffffffffffffffffff1673ffffffffffffffffffffffffffffffffffffffff16815260200190815260200160002060009054906101000a900460ff1615611a02576040517f08c379a00000000000000000000000000000000000000000000000000000000081526004016119f990613880565b60405180910390fd5b600082118015611a16575080600801548211155b611a55576040517f08c379a0000000000000000000000000000000000000000000000000000000008152600401611a4c9061317f565b60405180910390fd5b8060040160019054906101000a900460ff16611cc3576000600460003373ffffffffffffffffffffffffffffffffffffffff1673ffffffffffffffffffffffffffffffffffffffff16815260200190815260200160002090508060000160009054906101000a900460ff16611aff576040517f08c379a0000000000000000000000000000000000000000000000000000000008152600401611af6906138ec565b60405180910390fd5b816005015481600101541015611b4a576040517f08c379a0000000000000000000000000000000000000000000000000000000008152600401611b4190613958565b60405180910390fd5b6000611be1826002018054611b5e90612c83565b80601f0160208091040260200160405190810160405280929190818152602001828054611b8a90612c83565b8015611bd75780601f10611bac57610100808354040283529160200191611bd7565b820191906000526020600020905b815481529060010190602001808311611bba57829003601f168201915b5050505050611ff6565b90506000611c7a846006018054611bf790612c83565b80601f0160208091040260200160405190810160405280929190818152602001828054611c2390612c83565b8015611c705780601f10611c4557610100808354040283529160200191611c70565b820191906000526020600020905b815481529060010190602001808311611c5357829003601f168201915b5050505050611ff6565b905080821015611cbf576040517f08c379a0000000000000000000000000000000000000000000000000000000008152600401611cb6906139ea565b60405180910390fd5b5050505b60018160090160003373ffffffffffffffffffffffffffffffffffffffff1673ffffffffffffffffffffffffffffffffffffffff16815260200190815260200160002060006101000a81548160ff0219169083151502179055508060070160008381526020019081526020016000206002016000815480929190611d4690612e2f565b91905055507fd91ecafccf238642dccd41161308b3eebe62a12bc5819daf5164780c221ec95b838333604051611d7e93929190613a0a565b60405180910390a1505050565b60008054906101000a900473ffffffffffffffffffffffffffffffffffffffff1681565b60608060006003600085815260200190815260200160002090508060040160009054906101000a900460ff16611e1a576040517f08c379a0000000000000000000000000000000000000000000000000000000008152600401611e1190612c34565b60405180910390fd5b6000816008015467ffffffffffffffff811115611e3a57611e396121fe565b5b604051908082528060200260200182016040528015611e6d57816020015b6060815260200190600190039081611e585790505b5090506000826008015467ffffffffffffffff811115611e9057611e8f6121fe565b5b604051908082528060200260200182016040528015611ebe5781602001602082028036833780820191505090505b5090506000600190505b83600801548111611fe75760008460070160008381526020019081526020016000209050806001018054611efb90612c83565b80601f0160208091040260200160405190810160405280929190818152602001828054611f2790612c83565b8015611f745780601f10611f4957610100808354040283529160200191611f74565b820191906000526020600020905b815481529060010190602001808311611f5757829003601f168201915b505050505084600184611f879190613a41565b81518110611f9857611f9761372d565b5b6020026020010181905250806002015483600184611fb69190613a41565b81518110611fc757611fc661372d565b5b602002602001018181525050508080611fdf90612e2f565b915050611ec8565b50818194509450505050915091565b600080828051906020012090506040518060400160405280600781526020017f6469706c6f6d610000000000000000000000000000000000000000000000000081525080519060200120810361205057600191505061213d565b6040518060400160405280600a81526020017f62616368656c6f7227730000000000000000000000000000000000000000000081525080519060200120810361209d57600291505061213d565b6040518060400160405280600881526020017f6d617374657227730000000000000000000000000000000000000000000000008152508051906020012081036120ea57600391505061213d565b6040518060400160405280600981526020017f646f63746f72617465000000000000000000000000000000000000000000000081525080519060200120810361213757600491505061213d565b60009150505b919050565b6000604051905090565b600080fd5b600080fd5b6000819050919050565b61216981612156565b811461217457600080fd5b50565b60008135905061218681612160565b92915050565b6000602082840312156121a2576121a161214c565b5b60006121b084828501612177565b91505092915050565b6121c281612156565b82525050565b60006020820190506121dd60008301846121b9565b92915050565b600080fd5b600080fd5b6000601f19601f8301169050919050565b7f4e487b7100000000000000000000000000000000000000000000000000000000600052604160045260246000fd5b612236826121ed565b810181811067ffffffffffffffff82111715612255576122546121fe565b5b80604052505050565b6000612268612142565b9050612274828261222d565b919050565b600067ffffffffffffffff821115612294576122936121fe565b5b61229d826121ed565b9050602081019050919050565b82818337600083830152505050565b60006122cc6122c784612279565b61225e565b9050828152602081018484840111156122e8576122e76121e8565b5b6122f38482856122aa565b509392505050565b600082601f8301126123105761230f6121e3565b5b81356123208482602086016122b9565b91505092915050565b600080604083850312156123405761233f61214c565b5b600061234e85828601612177565b925050602083013567ffffffffffffffff81111561236f5761236e612151565b5b61237b858286016122fb565b9150509250929050565b600081519050919050565b600082825260208201905092915050565b60005b838110156123bf5780820151818401526020810190506123a4565b60008484015250505050565b60006123d682612385565b6123e08185612390565b93506123f08185602086016123a1565b6123f9816121ed565b840191505092915050565b6000602082019050818103600083015261241e81846123cb565b905092915050565b600073ffffffffffffffffffffffffffffffffffffffff82169050919050565b600061245182612426565b9050919050565b61246181612446565b811461246c57600080fd5b50565b60008135905061247e81612458565b92915050565b6000806040838503121561249b5761249a61214c565b5b60006124a985828601612177565b92505060206124ba8582860161246f565b9150509250929050565b60008115159050919050565b6124d9816124c4565b82525050565b60006020820190506124f460008301846124d0565b92915050565b600080604083850312156125115761251061214c565b5b600061251f85828601612177565b925050602061253085828601612177565b9150509250929050565b6000604082019050818103600083015261255481856123cb565b905061256360208301846121b9565b9392505050565b600061012082019050612580600083018c6121b9565b8181036020830152612592818b6123cb565b90506125a1604083018a6121b9565b6125ae60608301896121b9565b6125bb60808301886124d0565b6125c860a08301876124d0565b6125d560c08301866121b9565b81810360e08301526125e781856123cb565b90506125f76101008301846121b9565b9a9950505050505050505050565b61260e816124c4565b811461261957600080fd5b50565b60008135905061262b81612605565b92915050565b60008060008060008060c0878903121561264e5761264d61214c565b5b600087013567ffffffffffffffff81111561266c5761266b612151565b5b61267889828a016122fb565b965050602061268989828a01612177565b955050604061269a89828a01612177565b94505060606126ab89828a0161261c565b93505060806126bc89828a01612177565b92505060a087013567ffffffffffffffff8111156126dd576126dc612151565b5b6126e989828a016122fb565b9150509295509295509295565b60006020828403121561270c5761270b61214c565b5b600061271a8482850161246f565b91505092915050565b600081519050919050565b600082825260208201905092915050565b6000819050602082019050919050565b61275881612156565b82525050565b600061276a838361274f565b60208301905092915050565b6000602082019050919050565b600061278e82612723565b612798818561272e565b93506127a38361273f565b8060005b838110156127d45781516127bb888261275e565b97506127c683612776565b9250506001810190506127a7565b5085935050505092915050565b600081519050919050565b600082825260208201905092915050565b6000819050602082019050919050565b600082825260208201905092915050565b600061282982612385565b612833818561280d565b93506128438185602086016123a1565b61284c816121ed565b840191505092915050565b6000612863838361281e565b905092915050565b6000602082019050919050565b6000612883826127e1565b61288d81856127ec565b93508360208202850161289f856127fd565b8060005b858110156128db57848403895281516128bc8582612857565b94506128c78361286b565b925060208a019950506001810190506128a3565b50829750879550505050505092915050565b600081519050919050565b600082825260208201905092915050565b6000819050602082019050919050565b612922816124c4565b82525050565b60006129348383612919565b60208301905092915050565b6000602082019050919050565b6000612958826128ed565b61296281856128f8565b935061296d83612909565b8060005b8381101561299e5781516129858882612928565b975061299083612940565b925050600181019050612971565b5085935050505092915050565b600060e08201905081810360008301526129c5818a612783565b905081810360208301526129d98189612878565b905081810360408301526129ed8188612783565b90508181036060830152612a018187612783565b90508181036080830152612a15818661294d565b905081810360a0830152612a298185612783565b905081810360c0830152612a3d8184612878565b905098975050505050505050565b6000606082019050612a6060008301866124d0565b612a6d60208301856121b9565b8181036040830152612a7f81846123cb565b9050949350505050565b612a9281612446565b82525050565b6000602082019050612aad6000830184612a89565b92915050565b60006040820190508181036000830152612acd8185612878565b90508181036020830152612ae18184612783565b90509392505050565b7f4f6e6c792061646d696e2063616e20706572666f726d2074686973206163746960008201527f6f6e000000000000000000000000000000000000000000000000000000000000602082015250565b6000612b46602283612390565b9150612b5182612aea565b604082019050919050565b60006020820190508181036000830152612b7581612b39565b9050919050565b7f43616e646964617465206e616d652063616e6e6f7420626520656d7074790000600082015250565b6000612bb2601e83612390565b9150612bbd82612b7c565b602082019050919050565b60006020820190508181036000830152612be181612ba5565b9050919050565b7f456c656374696f6e20646f6573206e6f74206578697374000000000000000000600082015250565b6000612c1e601783612390565b9150612c2982612be8565b602082019050919050565b60006020820190508181036000830152612c4d81612c11565b9050919050565b7f4e487b7100000000000000000000000000000000000000000000000000000000600052602260045260246000fd5b60006002820490506001821680612c9b57607f821691505b602082108103612cae57612cad612c54565b5b50919050565b600081905092915050565b60008190508160005260206000209050919050565b60008154612ce181612c83565b612ceb8186612cb4565b94506001821660008114612d065760018114612d1b57612d4e565b60ff1983168652811515820286019350612d4e565b612d2485612cbf565b60005b83811015612d4657815481890152600182019150602081019050612d27565b838801955050505b50505092915050565b6000612d638284612cd4565b915081905092915050565b7f43616e64696461746520776974682074686973206e616d6520616c726561647960008201527f2065786973747300000000000000000000000000000000000000000000000000602082015250565b6000612dca602783612390565b9150612dd582612d6e565b604082019050919050565b60006020820190508181036000830152612df981612dbd565b9050919050565b7f4e487b7100000000000000000000000000000000000000000000000000000000600052601160045260246000fd5b6000612e3a82612156565b91507fffffffffffffffffffffffffffffffffffffffffffffffffffffffffffffffff8203612e6c57612e6b612e00565b5b600182019050919050565b60008190508160005260206000209050919050565b60006020601f8301049050919050565b600082821b905092915050565b600060088302612ed97fffffffffffffffffffffffffffffffffffffffffffffffffffffffffffffffff82612e9c565b612ee38683612e9c565b95508019841693508086168417925050509392505050565b6000819050919050565b6000612f20612f1b612f1684612156565b612efb565b612156565b9050919050565b6000819050919050565b612f3a83612f05565b612f4e612f4682612f27565b848454612ea9565b825550505050565b600090565b612f63612f56565b612f6e818484612f31565b505050565b5b81811015612f9257612f87600082612f5b565b600181019050612f74565b5050565b601f821115612fd757612fa881612e77565b612fb184612e8c565b81016020851015612fc0578190505b612fd4612fcc85612e8c565b830182612f73565b50505b505050565b600082821c905092915050565b6000612ffa60001984600802612fdc565b1980831691505092915050565b60006130138383612fe9565b9150826002028217905092915050565b61302c82612385565b67ffffffffffffffff811115613045576130446121fe565b5b61304f8254612c83565b61305a828285612f96565b600060209050601f83116001811461308d576000841561307b578287015190505b6130858582613007565b8655506130ed565b601f19841661309b86612e77565b60005b828110156130c35784890151825560018201915060208501945060208101905061309e565b868310156130e057848901516130dc601f891682612fe9565b8355505b6001600288020188555050505b505050505050565b600060608201905061310a60008301866121b9565b61311760208301856121b9565b818103604083015261312981846123cb565b9050949350505050565b7f496e76616c69642063616e646964617465000000000000000000000000000000600082015250565b6000613169601183612390565b915061317482613133565b602082019050919050565b600060208201905081810360008301526131988161315c565b9050919050565b7f456c656374696f6e206e616d652063616e6e6f7420626520656d707479000000600082015250565b60006131d5601d83612390565b91506131e08261319f565b602082019050919050565b60006020820190508181036000830152613204816131c8565b9050919050565b7f53746172742074696d65206d757374206265206265666f726520656e6420746960008201527f6d65000000000000000000000000000000000000000000000000000000000000602082015250565b6000613267602283612390565b91506132728261320b565b604082019050919050565b600060208201905081810360008301526132968161325a565b9050919050565b7f456e642074696d65206d75737420626520696e20746865206675747572650000600082015250565b60006132d3601e83612390565b91506132de8261329d565b602082019050919050565b60006020820190508181036000830152613302816132c6565b9050919050565b7f4d696e696d756d20616765206d7573742062652067726561746572207468616e60008201527f2030000000000000000000000000000000000000000000000000000000000000602082015250565b6000613365602283612390565b915061337082613309565b604082019050919050565b6000602082019050818103600083015261339481613358565b9050919050565b7f496e76616c696420726571756972656420656475636174696f6e207175616c6960008201527f6669636174696f6e000000000000000000000000000000000000000000000000602082015250565b60006133f7602883612390565b91506134028261339b565b604082019050919050565b60006020820190508181036000830152613426816133ea565b9050919050565b600060e082019050613442600083018a6121b9565b818103602083015261345481896123cb565b905061346360408301886121b9565b61347060608301876121b9565b61347d60808301866124d0565b61348a60a08301856121b9565b81810360c083015261349c81846123cb565b905098975050505050505050565b7f566f74657220616c726561647920726567697374657265640000000000000000600082015250565b60006134e0601883612390565b91506134eb826134aa565b602082019050919050565b6000602082019050818103600083015261350f816134d3565b9050919050565b7f416765206d7573742062652067726561746572207468616e2030000000000000600082015250565b600061354c601a83612390565b915061355782613516565b602082019050919050565b6000602082019050818103600083015261357b8161353f565b9050919050565b7f456475636174696f6e2063616e6e6f7420626520656d70747900000000000000600082015250565b60006135b8601983612390565b91506135c382613582565b602082019050919050565b600060208201905081810360008301526135e7816135ab565b9050919050565b7f496e76616c696420656475636174696f6e207175616c696669636174696f6e00600082015250565b6000613624601f83612390565b915061362f826135ee565b602082019050919050565b6000602082019050818103600083015261365381613617565b9050919050565b600060608201905061366f6000830186612a89565b61367c60208301856121b9565b818103604083015261368e81846123cb565b9050949350505050565b7f4e65772061646d696e2063616e6e6f74206265207a65726f2061646472657373600082015250565b60006136ce602083612390565b91506136d982613698565b602082019050919050565b600060208201905081810360008301526136fd816136c1565b9050919050565b60006040820190506137196000830185612a89565b6137266020830184612a89565b9392505050565b7f4e487b7100000000000000000000000000000000000000000000000000000000600052603260045260246000fd5b7f456c656374696f6e206861736e27742073746172746564207965740000000000600082015250565b6000613792601b83612390565b915061379d8261375c565b602082019050919050565b600060208201905081810360008301526137c181613785565b9050919050565b7f456c656374696f6e2068617320656e6465640000000000000000000000000000600082015250565b60006137fe601283612390565b9150613809826137c8565b602082019050919050565b6000602082019050818103600083015261382d816137f1565b9050919050565b7f596f75206861766520616c726561647920766f74656400000000000000000000600082015250565b600061386a601683612390565b915061387582613834565b602082019050919050565b600060208201905081810360008301526138998161385d565b9050919050565b7f566f746572206e6f742072656769737465726564206f6e2d636861696e000000600082015250565b60006138d6601d83612390565b91506138e1826138a0565b602082019050919050565b60006020820190508181036000830152613905816138c9565b9050919050565b7f566f74657220646f6573206e6f74206d656574206d696e696d756d2061676500600082015250565b6000613942601f83612390565b915061394d8261390c565b602082019050919050565b6000602082019050818103600083015261397181613935565b9050919050565b7f566f746572277320656475636174696f6e20646f6573206e6f74206d6565742060008201527f746865207265717569726564206c6576656c0000000000000000000000000000602082015250565b60006139d4603283612390565b91506139df82613978565b604082019050919050565b60006020820190508181036000830152613a03816139c7565b9050919050565b6000606082019050613a1f60008301866121b9565b613a2c60208301856121b9565b613a396040830184612a89565b949350505050565b6000613a4c82612156565b9150613a5783612156565b9250828203905081811115613a6f57613a6e612e00565b5b9291505056fea2646970667358221220d4aeca2c04146d06ba6076d190e698f4f0bffdb5dbd163dbd55b62a4be16a00664736f6c634300081c0033",
  "linkReferences": {},
  "deployedLinkReferences": {}
}